{"abi":[{"type":"constructor","inputs":[{"name":"_owner","type":"address","internalType":"address"},{"name":"_tokenAddress","type":"address","internalType":"address"},{"name":"_merkleRoot","type":"bytes32","internalType":"bytes32"},{"name":"_name","type":"string","internalType":"string"},{"name":"_nftAddress","type":"address","internalType":"address"},{"name":"_claimTime","type":"uint256","internalType":"uint256"},{"name":"_noOfClaimers","type":"uint256","internalType":"uint256"},{"name":"_totalOutputTokens","type":"uint256","internalType":"uint256"}],"stateMutability":"nonpayable"},{"type":"function","name":"airdropEndTime","inputs":[],"outputs":[{"name":"","type":"uint256","internalType":"uint256"}],"stateMutability":"view"},{"type":"function","name":"checkEligibility","inputs":[{"name":"_amount","type":"uint256","internalType":"uint256"},{"name":"_merkleProof","type":"bytes32[]","internalType":"bytes32[]"}],"outputs":[{"name":"","type":"bool","internalType":"bool"}],"stateMutability":"view"},{"type":"function","name":"claimAirdrop","inputs":[{"name":"_amount","type":"uint256","internalType":"uint256"},{"name":"_merkleProof","type":"bytes32[]","internalType":"bytes32[]"},{"name":"_tokenId","type":"uint256","internalType":"uint256"},{"name":"digest","type":"bytes32","internalType":"bytes32"},{"name":"signature","type":"bytes","internalType":"bytes"}],"outputs":[],"stateMutability":"nonpayable"},{"type":"function","name":"claimAirdrop","inputs":[{"name":"_amount","type":"uint256","internalType":"uint256"},{"name":"_merkleProof","type":"bytes32[]","internalType":"bytes32[]"},{"name":"digest","type":"bytes32","internalType":"bytes32"},{"name":"signature","type":"bytes","internalType":"bytes"}],"outputs":[],"stateMutability":"nonpayable"},{"type":"function","name":"fundAirdrop","inputs":[{"name":"_amount","type":"uint256","internalType":"uint256"}],"outputs":[],"stateMutability":"nonpayable"},{"type":"function","name":"getContractBalance","inputs":[],"outputs":[{"name":"","type":"uint256","internalType":"uint256"}],"stateMutability":"view"},{"type":"function","name":"hasAirdropTimeEnded","inputs":[],"outputs":[{"name":"","type":"bool","internalType":"bool"}],"stateMutability":"view"},{"type":"function","name":"hasOwnerWithdrawn","inputs":[],"outputs":[{"name":"","type":"bool","internalType":"bool"}],"stateMutability":"view"},{"type":"function","name":"hasUserClaimedAirdrop","inputs":[{"name":"user","type":"address","internalType":"address"}],"outputs":[{"name":"claimed","type":"bool","internalType":"bool"}],"stateMutability":"view"},{"type":"function","name":"isTimeLocked","inputs":[],"outputs":[{"name":"","type":"bool","internalType":"bool"}],"stateMutability":"view"},{"type":"function","name":"merkleRoot","inputs":[],"outputs":[{"name":"","type":"bytes32","internalType":"bytes32"}],"stateMutability":"view"},{"type":"function","name":"name","inputs":[],"outputs":[{"name":"","type":"string","internalType":"string"}],"stateMutability":"view"},{"type":"function","name":"owner","inputs":[],"outputs":[{"name":"","type":"address","internalType":"address"}],"stateMutability":"view"},{"type":"function","name":"tokenAddress","inputs":[],"outputs":[{"name":"","type":"address","internalType":"address"}],"stateMutability":"view"},{"type":"function","name":"totalOutputTokens","inputs":[],"outputs":[{"name":"","type":"uint256","internalType":"uint256"}],"stateMutability":"view"},{"type":"function","name":"turnOffNftRequirement","inputs":[],"outputs":[],"stateMutability":"nonpayable"},{"type":"function","name":"updateClaimTime","inputs":[{"name":"_claimTime","type":"uint256","internalType":"uint256"}],"outputs":[],"stateMutability":"nonpayable"},{"type":"function","name":"updateNftRequirement","inputs":[{"name":"_newNft","type":"address","internalType":"address"}],"outputs":[],"stateMutability":"nonpayable"},{"type":"function","name":"withdrawLeftOverToken","inputs":[],"outputs":[],"stateMutability":"nonpayable"},{"type":"event","name":"AirdropClaimed","inputs":[{"name":"_user","type":"address","indexed":true,"internalType":"address"},{"name":"_amount","type":"uint256","indexed":true,"internalType":"uint256"}],"anonymous":false},{"type":"event","name":"AirdropTokenDeposited","inputs":[{"name":"_owner","type":"address","indexed":true,"internalType":"address"},{"name":"_amount","type":"uint256","indexed":true,"internalType":"uint256"}],"anonymous":false},{"type":"event","name":"ClaimTimeUpdated","inputs":[{"name":"_owner","type":"address","indexed":true,"internalType":"address"},{"name":"_newClaimTimeDuration","type":"uint256","indexed":true,"internalType":"uint256"},{"name":"_newDeadline","type":"uint256","indexed":true,"internalType":"uint256"}],"anonymous":false},{"type":"event","name":"NftRequirementToggled","inputs":[{"name":"_owner","type":"address","indexed":true,"internalType":"address"},{"name":"_timestamp","type":"uint256","indexed":true,"internalType":"uint256"}],"anonymous":false},{"type":"event","name":"NftRequirementUpdated","inputs":[{"name":"_owner","type":"address","indexed":true,"internalType":"address"},{"name":"_timestamp","type":"uint256","indexed":true,"internalType":"uint256"},{"name":"_newNft","type":"address","indexed":true,"internalType":"address"}],"anonymous":false},{"type":"event","name":"WithdrawalSuccessful","inputs":[{"name":"_owner","type":"address","indexed":true,"internalType":"address"},{"name":"_amount","type":"uint256","indexed":true,"internalType":"uint256"}],"anonymous":false},{"type":"error","name":"AirdropClaimEnded","inputs":[]},{"type":"error","name":"AirdropClaimTimeNotEnded","inputs":[]},{"type":"error","name":"CannotSetAddressTwice","inputs":[]},{"type":"error","name":"ECDSAInvalidSignature","inputs":[]},{"type":"error","name":"ECDSAInvalidSignatureLength","inputs":[{"name":"length","type":"uint256","internalType":"uint256"}]},{"type":"error","name":"ECDSAInvalidSignatureS","inputs":[{"name":"s","type":"bytes32","internalType":"bytes32"}]},{"type":"error","name":"InsufficientContractBalance","inputs":[]},{"type":"error","name":"InvalidClaim","inputs":[]},{"type":"error","name":"InvalidSignature","inputs":[]},{"type":"error","name":"InvalidTokenId","inputs":[]},{"type":"error","name":"NFTNotFound","inputs":[]},{"type":"error","name":"TotalClaimersExceeded","inputs":[]},{"type":"error","name":"TransferFailed","inputs":[]},{"type":"error","name":"UnAuthorizedFunctionCall","inputs":[]},{"type":"error","name":"WithdrawalFailed","inputs":[]},{"type":"error","name":"ZeroAddressDetected","inputs":[]},{"type":"error","name":"ZeroValueDetected","inputs":[]}],"bytecode":{"object":"0x60e060405234801561000f575f5ffd5b506040516115bb3803806115bb83398101604081905261002e916100dd565b60808690526001600160a01b0380891660a052871660c0525f6100518682610268565b50600180546003849055600162ff000160a01b0319166001600160a01b038616908117901515600160b01b021760ff60a01b1916841515600160a01b0217905561009b8342610322565b6002556005555061034795505050505050565b80516001600160a01b03811681146100c4575f5ffd5b919050565b634e487b7160e01b5f52604160045260245ffd5b5f5f5f5f5f5f5f5f610100898b0312156100f5575f5ffd5b6100fe896100ae565b975061010c60208a016100ae565b60408a015160608b015191985096506001600160401b0381111561012e575f5ffd5b8901601f81018b1361013e575f5ffd5b80516001600160401b03811115610157576101576100c9565b604051601f8201601f19908116603f011681016001600160401b0381118282101715610185576101856100c9565b6040528181528282016020018d101561019c575f5ffd5b8160208401602083015e5f602083830101528097505050506101c060808a016100ae565b60a08a015160c08b015160e0909b0151999c989b5096999598909790945092505050565b600181811c908216806101f857607f821691505b60208210810361021657634e487b7160e01b5f52602260045260245ffd5b50919050565b601f82111561026357805f5260205f20601f840160051c810160208510156102415750805b601f840160051c820191505b81811015610260575f815560010161024d565b50505b505050565b81516001600160401b03811115610281576102816100c9565b6102958161028f84546101e4565b8461021c565b6020601f8211600181146102c7575f83156102b05750848201515b5f19600385901b1c1916600184901b178455610260565b5f84815260208120601f198516915b828110156102f657878501518255602094850194600190920191016102d6565b508482101561031357868401515f19600387901b60f8161c191681555b50505050600190811b01905550565b8082018082111561034157634e487b7160e01b5f52601160045260245ffd5b92915050565b60805160a05160c0516112196103a25f395f81816102750152818161040f0152818161062a015281816107910152610b3101525f8181610223015281816103e0015261097701525f81816101ae01526108fc01526112195ff3fe608060405234801561000f575f5ffd5b506004361061011c575f3560e01c80636f9fb98a116100a95780639d76ea581161006e5780639d76ea5814610270578063a69b8c8614610297578063ccdd8666146102aa578063d6aced8e146102bd578063eab8acb9146102d1575f5ffd5b80636f9fb98a146101fa57806371d3e1e514610202578063806019c1146102155780638da5cb5b1461021e5780638e2decd81461025d575f5ffd5b8063277d43ed116100ef578063277d43ed1461017f5780632b88e99f146101a15780632eb4a7ab146101a957806339258448146101de5780636130f256146101f1575f5ffd5b806306fdde03146101205780630725de031461013e578063166034a31461014857806321c57cc21461016c575b5f5ffd5b6101286102db565b6040516101359190610e8d565b60405180910390f35b610146610366565b005b60015461015c90600160a81b900460ff1681565b6040519015158152602001610135565b61014661017a366004610ec2565b6104c5565b61015c61018d366004610ed9565b60076020525f908152604090205460ff1681565b610146610522565b6101d07f000000000000000000000000000000000000000000000000000000000000000081565b604051908152602001610135565b6101466101ec366004610ed9565b610577565b6101d060055481565b6101d0610613565b610146610210366004610fe6565b6106a0565b6101d060025481565b6102457f000000000000000000000000000000000000000000000000000000000000000081565b6040516001600160a01b039091168152602001610135565b61014661026b366004610ec2565b61075e565b6102457f000000000000000000000000000000000000000000000000000000000000000081565b61015c6102a536600461106a565b610860565b6101466102b83660046110b2565b610932565b60015461015c90600160a01b900460ff1681565b600254421161015c565b5f80546102e79061112e565b80601f01602080910402602001604051908101604052809291908181526020018280546103139061112e565b801561035e5780601f106103355761010080835404028352916020019161035e565b820191905f5260205f20905b81548152906001019060200180831161034157829003601f168201915b505050505081565b61036e61096c565b5f610377610613565b9050610382816109b7565b600154600160a01b900460ff16156103b65760025442116103b657604051639b057eb160e01b815260040160405180910390fd5b6001805460ff60a81b1916600160a81b17905560405163a9059cbb60e01b81526001600160a01b037f000000000000000000000000000000000000000000000000000000000000000081166004830152602482018390527f0000000000000000000000000000000000000000000000000000000000000000169063a9059cbb906044016020604051808303815f875af1158015610455573d5f5f3e3d5ffd5b505050506040513d601f19601f820116820180604052508101906104799190611166565b610496576040516327fcd9d160e01b815260040160405180910390fd5b604051819033907ff4f855c53853d0277a9ff688aadbfe4cb795ca1d5af41704b62cb539f89939ec905f90a350565b6104cd61096c565b6001805460ff60a01b1916821515600160a01b021790556104ee8142611185565b6002819055604051829033907fab6a3e097fa5a053011b62b4b904711598f1ed750530f40d169a311672aeb242905f90a450565b61052a61096c565b6001805460ff60b01b198116600160b01b9182900460ff1615909102179055604051429033907f1e8d426c9dfdc05e315ff755720f544b8a6599caa164a3b88bf08097028a45ba905f90a3565b610580816109d9565b61058861096c565b6001546001600160a01b03166105c05760018054600162ff000160a01b0319166001600160a01b03831617600160b01b1790556105d9565b60405163aa822b9d60e01b815260040160405180910390fd5b6040516001600160a01b03821690429033907fc7ab93e8c162652617fb562ec3cd40224936e22448bf24f2b4824edb6fc068a7905f90a450565b6040516370a0823160e01b81523060048201525f907f00000000000000000000000000000000000000000000000000000000000000006001600160a01b0316906370a0823190602401602060405180830381865afa158015610677573d5f5f3e3d5ffd5b505050506040513d601f19601f8201168201806040525081019061069b91906111a4565b905090565b5f1983146106c1576040516307ed98ed60e31b815260040160405180910390fd5b6001546040516370a0823160e01b81523360048201525f916001600160a01b0316906370a0823190602401602060405180830381865afa158015610707573d5f5f3e3d5ffd5b505050506040513d601f19601f8201168201806040525081019061072b91906111a4565b116107495760405163f070cb6f60e01b815260040160405180910390fd5b6107568686868585610a00565b505050505050565b61076661096c565b61076f816109b7565b6040516323b872dd60e01b8152336004820152306024820152604481018290527f00000000000000000000000000000000000000000000000000000000000000006001600160a01b0316906323b872dd906064016020604051808303815f875af11580156107df573d5f5f3e3d5ffd5b505050506040513d601f19601f820116820180604052508101906108039190611166565b610820576040516312171d8360e31b815260040160405180910390fd5b8060055461082e9190611185565b600555604051819033907f0a60c58e7ac03dd847a718721f735d93489248a05e2363435bccd0688f295764905f90a350565b335f9081526007602052604081205460ff161561087e57505f61092b565b604080513360208201529081018590525f9060600160408051601f19818403018152828252805160209182012090830152016040516020818303038152906040528051906020012090506109278484808060200260200160405190810160405280939291908181526020018383602002808284375f920191909152507f00000000000000000000000000000000000000000000000000000000000000009250859150610bf49050565b9150505b9392505050565b600154600160b01b900460ff1615610958576109538585855f1986866106a0565b610965565b6109658585858585610a00565b5050505050565b336001600160a01b037f000000000000000000000000000000000000000000000000000000000000000016146109b557604051639db25d2b60e01b815260040160405180910390fd5b565b5f81116109d65760405162bc787d60e01b815260040160405180910390fd5b50565b6001600160a01b0381166109d657604051632887dd7560e11b815260040160405180910390fd5b610a0a8282610c09565b610a2757604051638baa579f60e01b815260040160405180910390fd5b610a32858585610860565b610a4f57604051633b4f091f60e21b815260040160405180910390fd5b600154600160a01b900460ff161580610a6a57506002544211155b610a8757604051633f317b8760e11b815260040160405180910390fd5b600454600354610a98826001611185565b1115610ab757604051637482785960e11b815260040160405180910390fd5b85610ac0610613565b1015610adf5760405163786e0a9960e01b815260040160405180910390fd5b600480546001908101909155335f908152600760205260409020805460ff19169091179055600654610b12908790611185565b60065560405163a9059cbb60e01b8152336004820152602481018790527f00000000000000000000000000000000000000000000000000000000000000006001600160a01b03169063a9059cbb906044016020604051808303815f875af1158015610b7f573d5f5f3e3d5ffd5b505050506040513d601f19601f82011682018060405250810190610ba39190611166565b610bc0576040516312171d8360e31b815260040160405180910390fd5b604051869033907f650e45f04ef8a0c267b2f78d983913f69ae3a353b2b32de5429307522be0ab55905f90a3505050505050565b5f82610c008584610c28565b14949350505050565b5f33610c158484610c6a565b6001600160a01b03161490505b92915050565b5f81815b8451811015610c6257610c5882868381518110610c4b57610c4b6111bb565b6020026020010151610c92565b9150600101610c2c565b509392505050565b5f5f5f5f610c788686610cbb565b925092509250610c888282610d04565b5090949350505050565b5f818310610cac575f82815260208490526040902061092b565b505f9182526020526040902090565b5f5f5f8351604103610cf2576020840151604085015160608601515f1a610ce488828585610dc5565b955095509550505050610cfd565b505081515f91506002905b9250925092565b5f826003811115610d1757610d176111cf565b03610d20575050565b6001826003811115610d3457610d346111cf565b03610d525760405163f645eedf60e01b815260040160405180910390fd5b6002826003811115610d6657610d666111cf565b03610d8c5760405163fce698f760e01b8152600481018290526024015b60405180910390fd5b6003826003811115610da057610da06111cf565b03610dc1576040516335e2f38360e21b815260048101829052602401610d83565b5050565b5f80807f7fffffffffffffffffffffffffffffff5d576e7357a4501ddfe92f46681b20a0841115610dfe57505f91506003905082610e83565b604080515f808252602082018084528a905260ff891692820192909252606081018790526080810186905260019060a0016020604051602081039080840390855afa158015610e4f573d5f5f3e3d5ffd5b5050604051601f1901519150506001600160a01b038116610e7a57505f925060019150829050610e83565b92505f91508190505b9450945094915050565b602081525f82518060208401528060208501604085015e5f604082850101526040601f19601f83011684010191505092915050565b5f60208284031215610ed2575f5ffd5b5035919050565b5f60208284031215610ee9575f5ffd5b81356001600160a01b038116811461092b575f5ffd5b5f5f83601f840112610f0f575f5ffd5b50813567ffffffffffffffff811115610f26575f5ffd5b6020830191508360208260051b8501011115610f40575f5ffd5b9250929050565b634e487b7160e01b5f52604160045260245ffd5b5f82601f830112610f6a575f5ffd5b813567ffffffffffffffff811115610f8457610f84610f47565b604051601f8201601f19908116603f0116810167ffffffffffffffff81118282101715610fb357610fb3610f47565b604052818152838201602001851015610fca575f5ffd5b816020850160208301375f918101602001919091529392505050565b5f5f5f5f5f5f60a08789031215610ffb575f5ffd5b86359550602087013567ffffffffffffffff811115611018575f5ffd5b61102489828a01610eff565b9096509450506040870135925060608701359150608087013567ffffffffffffffff811115611051575f5ffd5b61105d89828a01610f5b565b9150509295509295509295565b5f5f5f6040848603121561107c575f5ffd5b83359250602084013567ffffffffffffffff811115611099575f5ffd5b6110a586828701610eff565b9497909650939450505050565b5f5f5f5f5f608086880312156110c6575f5ffd5b85359450602086013567ffffffffffffffff8111156110e3575f5ffd5b6110ef88828901610eff565b90955093505060408601359150606086013567ffffffffffffffff811115611115575f5ffd5b61112188828901610f5b565b9150509295509295909350565b600181811c9082168061114257607f821691505b60208210810361116057634e487b7160e01b5f52602260045260245ffd5b50919050565b5f60208284031215611176575f5ffd5b8151801515811461092b575f5ffd5b80820180821115610c2257634e487b7160e01b5f52601160045260245ffd5b5f602082840312156111b4575f5ffd5b5051919050565b634e487b7160e01b5f52603260045260245ffd5b634e487b7160e01b5f52602160045260245ffdfea264697066735822122058d85a85148023b76ae2b955fb0214fe67583a61bc8fe6726d71469a2a441a4c64736f6c634300081b0033","linkReferences":{}},"methodIdentifiers":{"airdropEndTime()":"806019c1","checkEligibility(uint256,bytes32[])":"a69b8c86","claimAirdrop(uint256,bytes32[],bytes32,bytes)":"ccdd8666","claimAirdrop(uint256,bytes32[],uint256,bytes32,bytes)":"71d3e1e5","fundAirdrop(uint256)":"8e2decd8","getContractBalance()":"6f9fb98a","hasAirdropTimeEnded()":"eab8acb9","hasOwnerWithdrawn()":"166034a3","hasUserClaimedAirdrop(address)":"277d43ed","isTimeLocked()":"d6aced8e","merkleRoot()":"2eb4a7ab","name()":"06fdde03","owner()":"8da5cb5b","tokenAddress()":"9d76ea58","totalOutputTokens()":"6130f256","turnOffNftRequirement()":"2b88e99f","updateClaimTime(uint256)":"21c57cc2","updateNftRequirement(address)":"39258448","withdrawLeftOverToken()":"0725de03"},"id":39}